{
  "contractName": "SimpleRecoveryModule",
  "abi": [
    {
      "constant": true,
      "inputs": [],
      "name": "recoveryStartTime",
      "outputs": [
        {
          "name": "",
          "type": "uint256"
        }
      ],
      "payable": false,
      "stateMutability": "view",
      "type": "function"
    },
    {
      "constant": true,
      "inputs": [],
      "name": "manager",
      "outputs": [
        {
          "name": "",
          "type": "address"
        }
      ],
      "payable": false,
      "stateMutability": "view",
      "type": "function"
    },
    {
      "constant": true,
      "inputs": [
        {
          "name": "",
          "type": "uint256"
        }
      ],
      "name": "recoveryOwners",
      "outputs": [
        {
          "name": "",
          "type": "address"
        }
      ],
      "payable": false,
      "stateMutability": "view",
      "type": "function"
    },
    {
      "constant": false,
      "inputs": [
        {
          "name": "_masterCopy",
          "type": "address"
        }
      ],
      "name": "changeMasterCopy",
      "outputs": [],
      "payable": false,
      "stateMutability": "nonpayable",
      "type": "function"
    },
    {
      "constant": true,
      "inputs": [],
      "name": "NAME",
      "outputs": [
        {
          "name": "",
          "type": "string"
        }
      ],
      "payable": false,
      "stateMutability": "view",
      "type": "function"
    },
    {
      "constant": true,
      "inputs": [],
      "name": "recoverer",
      "outputs": [
        {
          "name": "",
          "type": "address"
        }
      ],
      "payable": false,
      "stateMutability": "view",
      "type": "function"
    },
    {
      "constant": true,
      "inputs": [],
      "name": "recoveryDurationS",
      "outputs": [
        {
          "name": "",
          "type": "uint256"
        }
      ],
      "payable": false,
      "stateMutability": "view",
      "type": "function"
    },
    {
      "constant": true,
      "inputs": [],
      "name": "VERSION",
      "outputs": [
        {
          "name": "",
          "type": "string"
        }
      ],
      "payable": false,
      "stateMutability": "view",
      "type": "function"
    },
    {
      "constant": false,
      "inputs": [
        {
          "name": "_recoverer",
          "type": "address"
        },
        {
          "name": "_recoveryDurationS",
          "type": "uint256"
        }
      ],
      "name": "setup",
      "outputs": [],
      "payable": false,
      "stateMutability": "nonpayable",
      "type": "function"
    },
    {
      "constant": false,
      "inputs": [
        {
          "name": "r",
          "type": "bytes32"
        },
        {
          "name": "s",
          "type": "bytes32"
        },
        {
          "name": "v",
          "type": "uint8"
        },
        {
          "name": "_recoveryOwners",
          "type": "address[]"
        }
      ],
      "name": "triggerRecovery",
      "outputs": [],
      "payable": false,
      "stateMutability": "nonpayable",
      "type": "function"
    },
    {
      "constant": false,
      "inputs": [
        {
          "name": "prevModule",
          "type": "address"
        }
      ],
      "name": "executeRecovery",
      "outputs": [],
      "payable": false,
      "stateMutability": "nonpayable",
      "type": "function"
    },
    {
      "constant": false,
      "inputs": [
        {
          "name": "r",
          "type": "bytes32"
        },
        {
          "name": "s",
          "type": "bytes32"
        },
        {
          "name": "v",
          "type": "uint8"
        },
        {
          "name": "_recoveryOwners",
          "type": "address[]"
        },
        {
          "name": "prevModule",
          "type": "address"
        }
      ],
      "name": "triggerAndExecuteRecoveryWithoutDelay",
      "outputs": [],
      "payable": false,
      "stateMutability": "nonpayable",
      "type": "function"
    },
    {
      "constant": false,
      "inputs": [],
      "name": "cancelRecovery",
      "outputs": [],
      "payable": false,
      "stateMutability": "nonpayable",
      "type": "function"
    }
  ],
  "bytecode": "0x608060405234801561001057600080fd5b50611aa9806100206000396000f3fe608060405234801561001057600080fd5b50600436106100cf5760003560e01c806358a13bf71161008c578063b808dce811610066578063b808dce814610491578063f46d1982146104db578063f579a14014610529578063ffa1ad7414610547576100cf565b806358a13bf71461035c5780637de7edef146103ca578063a3f4df7e1461040e576100cf565b8063060c0e34146100d45780630ba234d6146101ad57806314f5c2ec146101b75780631b023f31146101d55780633bc2c4a7146102ce578063481c6a7514610312575b600080fd5b6101ab600480360360808110156100ea57600080fd5b810190808035906020019092919080359060200190929190803560ff1690602001909291908035906020019064010000000081111561012857600080fd5b82018360208201111561013a57600080fd5b8035906020019184602083028401116401000000008311171561015c57600080fd5b919080806020026020016040519081016040528093929190818152602001838360200280828437600081840152601f19601f8201169050808301925050505050505091929192905050506105ca565b005b6101b56109be565b005b6101bf610bb9565b6040518082815260200191505060405180910390f35b6102cc600480360360a08110156101eb57600080fd5b810190808035906020019092919080359060200190929190803560ff1690602001909291908035906020019064010000000081111561022957600080fd5b82018360208201111561023b57600080fd5b8035906020019184602083028401116401000000008311171561025d57600080fd5b919080806020026020016040519081016040528093929190818152602001838360200280828437600081840152601f19601f820116905080830192505050505050509192919290803573ffffffffffffffffffffffffffffffffffffffff169060200190929190505050610bbf565b005b610310600480360360208110156102e457600080fd5b81019080803573ffffffffffffffffffffffffffffffffffffffff169060200190929190505050610c36565b005b61031a611455565b604051808273ffffffffffffffffffffffffffffffffffffffff1673ffffffffffffffffffffffffffffffffffffffff16815260200191505060405180910390f35b6103886004803603602081101561037257600080fd5b810190808035906020019092919050505061147b565b604051808273ffffffffffffffffffffffffffffffffffffffff1673ffffffffffffffffffffffffffffffffffffffff16815260200191505060405180910390f35b61040c600480360360208110156103e057600080fd5b81019080803573ffffffffffffffffffffffffffffffffffffffff1690602001909291905050506114b7565b005b610416611626565b6040518080602001828103825283818151815260200191508051906020019080838360005b8381101561045657808201518184015260208101905061043b565b50505050905090810190601f1680156104835780820380516001836020036101000a031916815260200191505b509250505060405180910390f35b61049961165f565b604051808273ffffffffffffffffffffffffffffffffffffffff1673ffffffffffffffffffffffffffffffffffffffff16815260200191505060405180910390f35b610527600480360360408110156104f157600080fd5b81019080803573ffffffffffffffffffffffffffffffffffffffff16906020019092919080359060200190929190505050611685565b005b61053161177c565b6040518082815260200191505060405180910390f35b61054f611782565b6040518080602001828103825283818151815260200191508051906020019080838360005b8381101561058f578082015181840152602081019050610574565b50505050905090810190601f1680156105bc5780820380516001836020036101000a031916815260200191505b509250505060405180910390f35b600073ffffffffffffffffffffffffffffffffffffffff16600260009054906101000a900473ffffffffffffffffffffffffffffffffffffffff1673ffffffffffffffffffffffffffffffffffffffff16141561068f576040517f08c379a00000000000000000000000000000000000000000000000000000000081526004018080602001828103825260188152602001807f4d6f64756c652077617320616c7265616479207573656421000000000000000081525060200191505060405180910390fd5b600060045414610707576040517f08c379a000000000000000000000000000000000000000000000000000000000815260040180806020018281038252601d8152602001807f5265636f766572792077617320616c726561647920737461727465642100000081525060200191505060405180910390fd5b600081511161077e576040517f08c379a00000000000000000000000000000000000000000000000000000000081526004018080602001828103825260188152602001807f4e6577206f776e6572732061726520726571756972656421000000000000000081525060200191505060405180910390fd5b6001601960f81b600060f81b8360405160200180847effffffffffffffffffffffffffffffffffffffffffffffffffffffffffffff19167effffffffffffffffffffffffffffffffffffffffffffffffffffffffffffff19168152600101837effffffffffffffffffffffffffffffffffffffffffffffffffffffffffffff19167effffffffffffffffffffffffffffffffffffffffffffffffffffffffffffff19168152600101828051906020019060200280838360005b83811015610852578082015181840152602081019050610837565b5050505090500193505050506040516020818303038152906040528051906020012083868660405160008152602001604052604051808581526020018460ff1660ff1681526020018381526020018281526020019450505050506020604051602081039080840390855afa1580156108ce573d6000803e3d6000fd5b5050506020604051035173ffffffffffffffffffffffffffffffffffffffff16600260009054906101000a900473ffffffffffffffffffffffffffffffffffffffff1673ffffffffffffffffffffffffffffffffffffffff161461099a576040517f08c379a000000000000000000000000000000000000000000000000000000000815260040180806020018281038252601b8152602001807f496e76616c6964207369676e61747572652070726f766964656421000000000081525060200191505060405180910390fd5b4260048190555080600590805190602001906109b79291906118e1565b5050505050565b600160009054906101000a900473ffffffffffffffffffffffffffffffffffffffff1673ffffffffffffffffffffffffffffffffffffffff163373ffffffffffffffffffffffffffffffffffffffff1614610a64576040517f08c379a0000000000000000000000000000000000000000000000000000000008152600401808060200182810382526026815260200180611a4f6026913960400191505060405180910390fd5b600073ffffffffffffffffffffffffffffffffffffffff16600260009054906101000a900473ffffffffffffffffffffffffffffffffffffffff1673ffffffffffffffffffffffffffffffffffffffff161415610b29576040517f08c379a00000000000000000000000000000000000000000000000000000000081526004018080602001828103825260188152602001807f4d6f64756c652077617320616c7265616479207573656421000000000000000081525060200191505060405180910390fd5b600060045411610ba1576040517f08c379a000000000000000000000000000000000000000000000000000000000815260040180806020018281038252601f8152602001807f5265636f7665727920776173206e6f742074726967676572656420796574210081525060200191505060405180910390fd5b600060048190555060056000610bb7919061196b565b565b60045481565b600060035414610c1a576040517f08c379a0000000000000000000000000000000000000000000000000000000008152600401808060200182810382526036815260200180611a196036913960400191505060405180910390fd5b610c26858585856105ca565b610c2f81610c36565b5050505050565b600073ffffffffffffffffffffffffffffffffffffffff16600260009054906101000a900473ffffffffffffffffffffffffffffffffffffffff1673ffffffffffffffffffffffffffffffffffffffff161415610cfb576040517f08c379a00000000000000000000000000000000000000000000000000000000081526004018080602001828103825260188152602001807f4d6f64756c652077617320616c7265616479207573656421000000000000000081525060200191505060405180910390fd5b600060045411610d73576040517f08c379a000000000000000000000000000000000000000000000000000000000815260040180806020018281038252601f8152602001807f5265636f7665727920776173206e6f742074726967676572656420796574210081525060200191505060405180910390fd5b610d8a6003546004546117bb90919063ffffffff16565b421015610dff576040517f08c379a00000000000000000000000000000000000000000000000000000000081526004018080602001828103825260208152602001807f5265636f766572792063616e6e6f74206265206578656375746564207965742181525060200191505060405180910390fd5b6000600260006101000a81548173ffffffffffffffffffffffffffffffffffffffff021916908373ffffffffffffffffffffffffffffffffffffffff16021790555060008090505b60058054905081101561116157606060058281548110610e6357fe5b9060005260206000200160009054906101000a900473ffffffffffffffffffffffffffffffffffffffff16600580549050604051602401808373ffffffffffffffffffffffffffffffffffffffff1673ffffffffffffffffffffffffffffffffffffffff168152602001828152602001925050506040516020818303038152906040527f0d582f13000000000000000000000000000000000000000000000000000000007bffffffffffffffffffffffffffffffffffffffffffffffffffffffff19166020820180517bffffffffffffffffffffffffffffffffffffffffffffffffffffffff83818316178352505050509050600160009054906101000a900473ffffffffffffffffffffffffffffffffffffffff1673ffffffffffffffffffffffffffffffffffffffff1663468721a7600160009054906101000a900473ffffffffffffffffffffffffffffffffffffffff1660008460006040518563ffffffff1660e01b8152600401808573ffffffffffffffffffffffffffffffffffffffff1673ffffffffffffffffffffffffffffffffffffffff1681526020018481526020018060200183600281111561101757fe5b60ff168152602001828103825284818151815260200191508051906020019080838360005b8381101561105757808201518184015260208101905061103c565b50505050905090810190601f1680156110845780820380516001836020036101000a031916815260200191505b5095505050505050602060405180830381600087803b1580156110a657600080fd5b505af11580156110ba573d6000803e3d6000fd5b505050506040513d60208110156110d057600080fd5b8101908080519060200190929190505050611153576040517f08c379a000000000000000000000000000000000000000000000000000000000815260040180806020018281038252601b8152602001807f436f756c64206e6f742065786563757465207265636f7665727921000000000081525060200191505060405180910390fd5b508080600101915050610e47565b5060608130604051602401808373ffffffffffffffffffffffffffffffffffffffff1673ffffffffffffffffffffffffffffffffffffffff1681526020018273ffffffffffffffffffffffffffffffffffffffff1673ffffffffffffffffffffffffffffffffffffffff168152602001925050506040516020818303038152906040527fe009cfde000000000000000000000000000000000000000000000000000000007bffffffffffffffffffffffffffffffffffffffffffffffffffffffff19166020820180517bffffffffffffffffffffffffffffffffffffffffffffffffffffffff83818316178352505050509050600160009054906101000a900473ffffffffffffffffffffffffffffffffffffffff1673ffffffffffffffffffffffffffffffffffffffff1663468721a7600160009054906101000a900473ffffffffffffffffffffffffffffffffffffffff1660008460006040518563ffffffff1660e01b8152600401808573ffffffffffffffffffffffffffffffffffffffff1673ffffffffffffffffffffffffffffffffffffffff1681526020018481526020018060200183600281111561131557fe5b60ff168152602001828103825284818151815260200191508051906020019080838360005b8381101561135557808201518184015260208101905061133a565b50505050905090810190601f1680156113825780820380516001836020036101000a031916815260200191505b5095505050505050602060405180830381600087803b1580156113a457600080fd5b505af11580156113b8573d6000803e3d6000fd5b505050506040513d60208110156113ce57600080fd5b8101908080519060200190929190505050611451576040517f08c379a00000000000000000000000000000000000000000000000000000000081526004018080602001828103825260198152602001807f436f756c64206e6f742064697361626c65206d6f64756c65210000000000000081525060200191505060405180910390fd5b5050565b600160009054906101000a900473ffffffffffffffffffffffffffffffffffffffff1681565b6005818154811061148857fe5b906000526020600020016000915054906101000a900473ffffffffffffffffffffffffffffffffffffffff1681565b600160009054906101000a900473ffffffffffffffffffffffffffffffffffffffff1673ffffffffffffffffffffffffffffffffffffffff163373ffffffffffffffffffffffffffffffffffffffff161461155d576040517f08c379a0000000000000000000000000000000000000000000000000000000008152600401808060200182810382526026815260200180611a4f6026913960400191505060405180910390fd5b600073ffffffffffffffffffffffffffffffffffffffff168173ffffffffffffffffffffffffffffffffffffffff1614156115e3576040517f08c379a00000000000000000000000000000000000000000000000000000000081526004018080602001828103825260248152602001806119f56024913960400191505060405180910390fd5b806000806101000a81548173ffffffffffffffffffffffffffffffffffffffff021916908373ffffffffffffffffffffffffffffffffffffffff16021790555050565b6040518060400160405280601681526020017f53696d706c65205265636f76657279204d6f64756c650000000000000000000081525081565b600260009054906101000a900473ffffffffffffffffffffffffffffffffffffffff1681565b61168d6117da565b600073ffffffffffffffffffffffffffffffffffffffff168273ffffffffffffffffffffffffffffffffffffffff161415611730576040517f08c379a000000000000000000000000000000000000000000000000000000000815260040180806020018281038252601a8152602001807f496e76616c6964207265636f76657265722070726f766964656400000000000081525060200191505060405180910390fd5b81600260006101000a81548173ffffffffffffffffffffffffffffffffffffffff021916908373ffffffffffffffffffffffffffffffffffffffff160217905550806003819055505050565b60035481565b6040518060400160405280600581526020017f312e302e3000000000000000000000000000000000000000000000000000000081525081565b6000808284019050838110156117d057600080fd5b8091505092915050565b600073ffffffffffffffffffffffffffffffffffffffff16600160009054906101000a900473ffffffffffffffffffffffffffffffffffffffff1673ffffffffffffffffffffffffffffffffffffffff161461189e576040517f08c379a000000000000000000000000000000000000000000000000000000000815260040180806020018281038252601c8152602001807f4d616e616765722068617320616c7265616479206265656e207365740000000081525060200191505060405180910390fd5b33600160006101000a81548173ffffffffffffffffffffffffffffffffffffffff021916908373ffffffffffffffffffffffffffffffffffffffff160217905550565b82805482825590600052602060002090810192821561195a579160200282015b828111156119595782518260006101000a81548173ffffffffffffffffffffffffffffffffffffffff021916908373ffffffffffffffffffffffffffffffffffffffff16021790555091602001919060010190611901565b5b509050611967919061198c565b5090565b508054600082559060005260206000209081019061198991906119cf565b50565b6119cc91905b808211156119c857600081816101000a81549073ffffffffffffffffffffffffffffffffffffffff021916905550600101611992565b5090565b90565b6119f191905b808211156119ed5760008160009055506001016119d5565b5090565b9056fe496e76616c6964206d617374657220636f707920616464726573732070726f766964656454686973206d6574686f642063616e206f6e6c792062652075736564206966206e6f742064656c61792077617320646566696e6564214d6574686f642063616e206f6e6c792062652063616c6c65642066726f6d206d616e61676572a265627a7a72305820aa7015eaffb66a68b4a97ff91bcdcf51ff241ca3c383bdfa67e71ff5a75998eb64736f6c63430005090032",
  "source": "pragma solidity ^0.5.0;\n\nimport \"@gnosis.pm/safe-contracts/contracts/base/ModuleManager.sol\";\nimport \"@gnosis.pm/safe-contracts/contracts/base/OwnerManager.sol\";\nimport \"@gnosis.pm/safe-contracts/contracts/base/Module.sol\";\nimport \"@gnosis.pm/safe-contracts/contracts/common/Enum.sol\";\nimport \"./external/SafeMath.sol\";\n\ncontract SimpleRecoveryModule is Module {\n\n    using SafeMath for uint256;\n\n    string public constant NAME = \"Simple Recovery Module\";\n    string public constant VERSION = \"1.0.0\";\n\n    // Address that can trigger the recovery\n    address public recoverer;\n    // Recovery duration in seconds\n    uint256 public recoveryDurationS;\n    // Time when recovery was triggerd\n    uint256 public recoveryStartTime;\n    // Owners that should be added for recovery;\n    address[] public recoveryOwners;\n\n    /// @dev Setup function sets initial storage of contract.\n    function setup(address _recoverer, uint256 _recoveryDurationS)\n        public\n    {\n        setManager();\n        require(_recoverer != address(0), \"Invalid recoverer provided\");\n        recoverer = _recoverer;\n        recoveryDurationS = _recoveryDurationS;\n    }\n\n    function triggerRecovery(bytes32 r, bytes32 s, uint8 v, address[] memory _recoveryOwners) public {\n        require(recoverer != address(0), \"Module was already used!\");\n        require(recoveryStartTime == 0, \"Recovery was already started!\");\n        require(_recoveryOwners.length > 0, \"New owners are required!\");\n        require(recoverer == ecrecover(keccak256(abi.encodePacked(byte(0x19), byte(0x00), _recoveryOwners)), v, r, s), \"Invalid signature provided!\");\n        recoveryStartTime = now;\n        recoveryOwners = _recoveryOwners;\n    }\n\n    /// @dev Setup function sets initial storage of contract.\n    /// @param prevModule Previous module to disable this module after successfull recovery\n    function executeRecovery(address prevModule) public {\n        require(recoverer != address(0), \"Module was already used!\");\n        require(recoveryStartTime > 0, \"Recovery was not triggered yet!\");\n        require(now >= recoveryStartTime.add(recoveryDurationS), \"Recovery cannot be executed yet!\");\n        recoverer = address(0);\n        for (uint256 i = 0; i < recoveryOwners.length; i++) {\n            bytes memory addOwnerData = abi.encodeWithSignature(\"addOwnerWithThreshold(address,uint256)\", recoveryOwners[i], recoveryOwners.length);\n            require(manager.execTransactionFromModule(address(manager), 0, addOwnerData, Enum.Operation.Call), \"Could not execute recovery!\");\n        }\n        // This recovery module can only be used and should be disabled when the recovery was successfull\n        bytes memory disableModuleData = abi.encodeWithSignature(\"disableModule(address,address)\", prevModule, address(this));\n        require(manager.execTransactionFromModule(address(manager), 0, disableModuleData, Enum.Operation.Call), \"Could not disable module!\");\n    }\n\n    function triggerAndExecuteRecoveryWithoutDelay(bytes32 r, bytes32 s, uint8 v, address[] memory _recoveryOwners, address prevModule) public {\n        require(recoveryDurationS == 0, \"This method can only be used if not delay was defined!\");\n        triggerRecovery(r, s, v, _recoveryOwners);\n        executeRecovery(prevModule);\n    }\n\n    function cancelRecovery() public authorized {\n        require(recoverer != address(0), \"Module was already used!\");\n        require(recoveryStartTime > 0, \"Recovery was not triggered yet!\");\n        recoveryStartTime = 0;\n        delete recoveryOwners;\n    }\n}\n",
  "sourcePath": "/Users/rimeissner/gnosis/eth-berlin-location-recovery/ethereum/contracts/SimpleRecoveryModule.sol",
  "compiler": {
    "name": "solc",
    "version": "0.5.9+commit.e560f70d.Emscripten.clang"
  },
  "schemaVersion": "2.0.2",
  "updatedAt": "2019-08-24T17:10:38.041Z"
}